{
	"ENS.sol": {
		"ENS": {
			"abi": [
				{
					"anonymous": false,
					"inputs": [
						{
							"indexed": true,
							"internalType": "string",
							"name": "name",
							"type": "string"
						},
						{
							"indexed": true,
							"internalType": "address",
							"name": "owner",
							"type": "address"
						}
					],
					"name": "Registered",
					"type": "event"
				},
				{
					"anonymous": false,
					"inputs": [
						{
							"indexed": true,
							"internalType": "string",
							"name": "name",
							"type": "string"
						},
						{
							"indexed": true,
							"internalType": "address",
							"name": "newOwner",
							"type": "address"
						}
					],
					"name": "Updated",
					"type": "event"
				},
				{
					"inputs": [
						{
							"internalType": "string",
							"name": "",
							"type": "string"
						}
					],
					"name": "names",
					"outputs": [
						{
							"internalType": "address",
							"name": "",
							"type": "address"
						}
					],
					"stateMutability": "view",
					"type": "function"
				},
				{
					"inputs": [
						{
							"internalType": "string",
							"name": "_name",
							"type": "string"
						},
						{
							"internalType": "address",
							"name": "_address",
							"type": "address"
						}
					],
					"name": "register",
					"outputs": [],
					"stateMutability": "nonpayable",
					"type": "function"
				},
				{
					"inputs": [
						{
							"internalType": "string",
							"name": "_name",
							"type": "string"
						}
					],
					"name": "resolve",
					"outputs": [
						{
							"internalType": "address",
							"name": "",
							"type": "address"
						}
					],
					"stateMutability": "view",
					"type": "function"
				},
				{
					"inputs": [
						{
							"internalType": "string",
							"name": "_name",
							"type": "string"
						},
						{
							"internalType": "address",
							"name": "_newAddress",
							"type": "address"
						}
					],
					"name": "update",
					"outputs": [],
					"stateMutability": "nonpayable",
					"type": "function"
				}
			],
			"devdoc": {
				"kind": "dev",
				"methods": {
					"register(string,address)": {
						"params": {
							"_address": "등록할 이더리움 주소",
							"_name": "도메인 이름 (예: \"seowoo.eth\")"
						}
					},
					"resolve(string)": {
						"params": {
							"_name": "조회할 도메인 이름"
						},
						"returns": {
							"_0": "이더리움 주소"
						}
					}
				},
				"title": "간단한 ENS 네임 서비스 컨트랙트 예제",
				"version": 1
			},
			"evm": {
				"assembly": "    /* \"ENS.sol\":817:2286  contract ENS {... */\n  mstore(0x40, 0x80)\n  callvalue\n  dup1\n  iszero\n  tag_1\n  jumpi\n  0x00\n  dup1\n  revert\ntag_1:\n  pop\n  dataSize(sub_0)\n  dup1\n  dataOffset(sub_0)\n  0x00\n  codecopy\n  0x00\n  return\nstop\n\nsub_0: assembly {\n        /* \"ENS.sol\":817:2286  contract ENS {... */\n      mstore(0x40, 0x80)\n      callvalue\n      dup1\n      iszero\n      tag_1\n      jumpi\n      0x00\n      dup1\n      revert\n    tag_1:\n      pop\n      jumpi(tag_2, lt(calldatasize, 0x04))\n      shr(0xe0, calldataload(0x00))\n      dup1\n      0x1e59c529\n      eq\n      tag_3\n      jumpi\n      dup1\n      0x2cff89c9\n      eq\n      tag_4\n      jumpi\n      dup1\n      0x461a4478\n      eq\n      tag_5\n      jumpi\n      dup1\n      0x822fbf58\n      eq\n      tag_6\n      jumpi\n    tag_2:\n      0x00\n      dup1\n      revert\n        /* \"ENS.sol\":1348:1631  function register(string memory _name, address _address) public {... */\n    tag_3:\n      tag_7\n      0x04\n      dup1\n      calldatasize\n      sub\n      dup2\n      add\n      swap1\n      tag_8\n      swap2\n      swap1\n      tag_9\n      jump\t// in\n    tag_8:\n      tag_10\n      jump\t// in\n    tag_7:\n      stop\n        /* \"ENS.sol\":1828:2050  function update(string memory _name, address _newAddress) public {... */\n    tag_4:\n      tag_11\n      0x04\n      dup1\n      calldatasize\n      sub\n      dup2\n      add\n      swap1\n      tag_12\n      swap2\n      swap1\n      tag_9\n      jump\t// in\n    tag_12:\n      tag_13\n      jump\t// in\n    tag_11:\n      stop\n        /* \"ENS.sol\":2180:2284  function resolve(string memory _name) public view returns (address) {... */\n    tag_5:\n      tag_14\n      0x04\n      dup1\n      calldatasize\n      sub\n      dup2\n      add\n      swap1\n      tag_15\n      swap2\n      swap1\n      tag_16\n      jump\t// in\n    tag_15:\n      tag_17\n      jump\t// in\n    tag_14:\n      mload(0x40)\n      tag_18\n      swap2\n      swap1\n      tag_19\n      jump\t// in\n    tag_18:\n      mload(0x40)\n      dup1\n      swap2\n      sub\n      swap1\n      return\n        /* \"ENS.sol\":912:951  mapping(string => address) public names */\n    tag_6:\n      tag_20\n      0x04\n      dup1\n      calldatasize\n      sub\n      dup2\n      add\n      swap1\n      tag_21\n      swap2\n      swap1\n      tag_16\n      jump\t// in\n    tag_21:\n      tag_22\n      jump\t// in\n    tag_20:\n      mload(0x40)\n      tag_23\n      swap2\n      swap1\n      tag_19\n      jump\t// in\n    tag_23:\n      mload(0x40)\n      dup1\n      swap2\n      sub\n      swap1\n      return\n        /* \"ENS.sol\":1348:1631  function register(string memory _name, address _address) public {... */\n    tag_10:\n        /* \"ENS.sol\":1516:1517  0 */\n      0x00\n        /* \"ENS.sol\":1492:1518  names[_name] == address(0) */\n      0xffffffffffffffffffffffffffffffffffffffff\n      and\n        /* \"ENS.sol\":1492:1497  names */\n      0x00\n        /* \"ENS.sol\":1498:1503  _name */\n      dup4\n        /* \"ENS.sol\":1492:1504  names[_name] */\n      mload(0x40)\n      tag_25\n      swap2\n      swap1\n      tag_26\n      jump\t// in\n    tag_25:\n      swap1\n      dup2\n      mstore\n      0x20\n      add\n      mload(0x40)\n      dup1\n      swap2\n      sub\n      swap1\n      keccak256\n      0x00\n      swap1\n      sload\n      swap1\n      0x0100\n      exp\n      swap1\n      div\n      0xffffffffffffffffffffffffffffffffffffffff\n      and\n        /* \"ENS.sol\":1492:1518  names[_name] == address(0) */\n      0xffffffffffffffffffffffffffffffffffffffff\n      and\n      eq\n        /* \"ENS.sol\":1484:1549  require(names[_name] == address(0), \"Name is already registered\") */\n      tag_27\n      jumpi\n      mload(0x40)\n      0x08c379a000000000000000000000000000000000000000000000000000000000\n      dup2\n      mstore\n      0x04\n      add\n      tag_28\n      swap1\n      tag_29\n      jump\t// in\n    tag_28:\n      mload(0x40)\n      dup1\n      swap2\n      sub\n      swap1\n      revert\n    tag_27:\n        /* \"ENS.sol\":1574:1582  _address */\n      dup1\n        /* \"ENS.sol\":1559:1564  names */\n      0x00\n        /* \"ENS.sol\":1565:1570  _name */\n      dup4\n        /* \"ENS.sol\":1559:1571  names[_name] */\n      mload(0x40)\n      tag_30\n      swap2\n      swap1\n      tag_26\n      jump\t// in\n    tag_30:\n      swap1\n      dup2\n      mstore\n      0x20\n      add\n      mload(0x40)\n      dup1\n      swap2\n      sub\n      swap1\n      keccak256\n      0x00\n        /* \"ENS.sol\":1559:1582  names[_name] = _address */\n      0x0100\n      exp\n      dup2\n      sload\n      dup2\n      0xffffffffffffffffffffffffffffffffffffffff\n      mul\n      not\n      and\n      swap1\n      dup4\n      0xffffffffffffffffffffffffffffffffffffffff\n      and\n      mul\n      or\n      swap1\n      sstore\n      pop\n        /* \"ENS.sol\":1615:1623  _address */\n      dup1\n        /* \"ENS.sol\":1597:1624  Registered(_name, _address) */\n      0xffffffffffffffffffffffffffffffffffffffff\n      and\n        /* \"ENS.sol\":1608:1613  _name */\n      dup3\n        /* \"ENS.sol\":1597:1624  Registered(_name, _address) */\n      mload(0x40)\n      tag_31\n      swap2\n      swap1\n      tag_26\n      jump\t// in\n    tag_31:\n      mload(0x40)\n      dup1\n      swap2\n      sub\n      swap1\n      keccak256\n      0x50f74ca45caac8020b8d891bd13ea5a2d79564986ee6a839f0d914896388322d\n      mload(0x40)\n      mload(0x40)\n      dup1\n      swap2\n      sub\n      swap1\n      log3\n        /* \"ENS.sol\":1348:1631  function register(string memory _name, address _address) public {... */\n      pop\n      pop\n      jump\t// out\n        /* \"ENS.sol\":1828:2050  function update(string memory _name, address _newAddress) public {... */\n    tag_13:\n        /* \"ENS.sol\":1935:1936  0 */\n      0x00\n        /* \"ENS.sol\":1911:1937  names[_name] != address(0) */\n      0xffffffffffffffffffffffffffffffffffffffff\n      and\n        /* \"ENS.sol\":1911:1916  names */\n      0x00\n        /* \"ENS.sol\":1917:1922  _name */\n      dup4\n        /* \"ENS.sol\":1911:1923  names[_name] */\n      mload(0x40)\n      tag_33\n      swap2\n      swap1\n      tag_26\n      jump\t// in\n    tag_33:\n      swap1\n      dup2\n      mstore\n      0x20\n      add\n      mload(0x40)\n      dup1\n      swap2\n      sub\n      swap1\n      keccak256\n      0x00\n      swap1\n      sload\n      swap1\n      0x0100\n      exp\n      swap1\n      div\n      0xffffffffffffffffffffffffffffffffffffffff\n      and\n        /* \"ENS.sol\":1911:1937  names[_name] != address(0) */\n      0xffffffffffffffffffffffffffffffffffffffff\n      and\n      sub\n        /* \"ENS.sol\":1903:1965  require(names[_name] != address(0), \"Name not registered yet\") */\n      tag_34\n      jumpi\n      mload(0x40)\n      0x08c379a000000000000000000000000000000000000000000000000000000000\n      dup2\n      mstore\n      0x04\n      add\n      tag_35\n      swap1\n      tag_36\n      jump\t// in\n    tag_35:\n      mload(0x40)\n      dup1\n      swap2\n      sub\n      swap1\n      revert\n    tag_34:\n        /* \"ENS.sol\":1990:2001  _newAddress */\n      dup1\n        /* \"ENS.sol\":1975:1980  names */\n      0x00\n        /* \"ENS.sol\":1981:1986  _name */\n      dup4\n        /* \"ENS.sol\":1975:1987  names[_name] */\n      mload(0x40)\n      tag_37\n      swap2\n      swap1\n      tag_26\n      jump\t// in\n    tag_37:\n      swap1\n      dup2\n      mstore\n      0x20\n      add\n      mload(0x40)\n      dup1\n      swap2\n      sub\n      swap1\n      keccak256\n      0x00\n        /* \"ENS.sol\":1975:2001  names[_name] = _newAddress */\n      0x0100\n      exp\n      dup2\n      sload\n      dup2\n      0xffffffffffffffffffffffffffffffffffffffff\n      mul\n      not\n      and\n      swap1\n      dup4\n      0xffffffffffffffffffffffffffffffffffffffff\n      and\n      mul\n      or\n      swap1\n      sstore\n      pop\n        /* \"ENS.sol\":2031:2042  _newAddress */\n      dup1\n        /* \"ENS.sol\":2016:2043  Updated(_name, _newAddress) */\n      0xffffffffffffffffffffffffffffffffffffffff\n      and\n        /* \"ENS.sol\":2024:2029  _name */\n      dup3\n        /* \"ENS.sol\":2016:2043  Updated(_name, _newAddress) */\n      mload(0x40)\n      tag_38\n      swap2\n      swap1\n      tag_26\n      jump\t// in\n    tag_38:\n      mload(0x40)\n      dup1\n      swap2\n      sub\n      swap1\n      keccak256\n      0xd2259e9397e65ca61887cdea205b5eeb2c47323fd29440aa74554522fbddd7ba\n      mload(0x40)\n      mload(0x40)\n      dup1\n      swap2\n      sub\n      swap1\n      log3\n        /* \"ENS.sol\":1828:2050  function update(string memory _name, address _newAddress) public {... */\n      pop\n      pop\n      jump\t// out\n        /* \"ENS.sol\":2180:2284  function resolve(string memory _name) public view returns (address) {... */\n    tag_17:\n        /* \"ENS.sol\":2239:2246  address */\n      0x00\n        /* \"ENS.sol\":2265:2270  names */\n      dup1\n        /* \"ENS.sol\":2271:2276  _name */\n      dup3\n        /* \"ENS.sol\":2265:2277  names[_name] */\n      mload(0x40)\n      tag_40\n      swap2\n      swap1\n      tag_26\n      jump\t// in\n    tag_40:\n      swap1\n      dup2\n      mstore\n      0x20\n      add\n      mload(0x40)\n      dup1\n      swap2\n      sub\n      swap1\n      keccak256\n      0x00\n      swap1\n      sload\n      swap1\n      0x0100\n      exp\n      swap1\n      div\n      0xffffffffffffffffffffffffffffffffffffffff\n      and\n        /* \"ENS.sol\":2258:2277  return names[_name] */\n      swap1\n      pop\n        /* \"ENS.sol\":2180:2284  function resolve(string memory _name) public view returns (address) {... */\n      swap2\n      swap1\n      pop\n      jump\t// out\n        /* \"ENS.sol\":912:951  mapping(string => address) public names */\n    tag_22:\n      0x00\n      dup2\n      dup1\n      mload\n      0x20\n      dup2\n      add\n      dup3\n      add\n      dup1\n      mload\n      dup5\n      dup3\n      mstore\n      0x20\n      dup4\n      add\n      0x20\n      dup6\n      add\n      keccak256\n      dup2\n      dup4\n      mstore\n      dup1\n      swap6\n      pop\n      pop\n      pop\n      pop\n      pop\n      pop\n      0x00\n      swap2\n      pop\n      sload\n      swap1\n      0x0100\n      exp\n      swap1\n      div\n      0xffffffffffffffffffffffffffffffffffffffff\n      and\n      dup2\n      jump\t// out\n        /* \"#utility.yul\":7:82   */\n    tag_41:\n        /* \"#utility.yul\":40:46   */\n      0x00\n        /* \"#utility.yul\":73:75   */\n      0x40\n        /* \"#utility.yul\":67:76   */\n      mload\n        /* \"#utility.yul\":57:76   */\n      swap1\n      pop\n        /* \"#utility.yul\":7:82   */\n      swap1\n      jump\t// out\n        /* \"#utility.yul\":88:205   */\n    tag_42:\n        /* \"#utility.yul\":197:198   */\n      0x00\n        /* \"#utility.yul\":194:195   */\n      dup1\n        /* \"#utility.yul\":187:199   */\n      revert\n        /* \"#utility.yul\":211:328   */\n    tag_43:\n        /* \"#utility.yul\":320:321   */\n      0x00\n        /* \"#utility.yul\":317:318   */\n      dup1\n        /* \"#utility.yul\":310:322   */\n      revert\n        /* \"#utility.yul\":334:451   */\n    tag_44:\n        /* \"#utility.yul\":443:444   */\n      0x00\n        /* \"#utility.yul\":440:441   */\n      dup1\n        /* \"#utility.yul\":433:445   */\n      revert\n        /* \"#utility.yul\":457:574   */\n    tag_45:\n        /* \"#utility.yul\":566:567   */\n      0x00\n        /* \"#utility.yul\":563:564   */\n      dup1\n        /* \"#utility.yul\":556:568   */\n      revert\n        /* \"#utility.yul\":580:682   */\n    tag_46:\n        /* \"#utility.yul\":621:627   */\n      0x00\n        /* \"#utility.yul\":672:674   */\n      0x1f\n        /* \"#utility.yul\":668:675   */\n      not\n        /* \"#utility.yul\":663:665   */\n      0x1f\n        /* \"#utility.yul\":656:661   */\n      dup4\n        /* \"#utility.yul\":652:666   */\n      add\n        /* \"#utility.yul\":648:676   */\n      and\n        /* \"#utility.yul\":638:676   */\n      swap1\n      pop\n        /* \"#utility.yul\":580:682   */\n      swap2\n      swap1\n      pop\n      jump\t// out\n        /* \"#utility.yul\":688:868   */\n    tag_47:\n        /* \"#utility.yul\":736:813   */\n      0x4e487b7100000000000000000000000000000000000000000000000000000000\n        /* \"#utility.yul\":733:734   */\n      0x00\n        /* \"#utility.yul\":726:814   */\n      mstore\n        /* \"#utility.yul\":833:837   */\n      0x41\n        /* \"#utility.yul\":830:831   */\n      0x04\n        /* \"#utility.yul\":823:838   */\n      mstore\n        /* \"#utility.yul\":857:861   */\n      0x24\n        /* \"#utility.yul\":854:855   */\n      0x00\n        /* \"#utility.yul\":847:862   */\n      revert\n        /* \"#utility.yul\":874:1155   */\n    tag_48:\n        /* \"#utility.yul\":957:984   */\n      tag_77\n        /* \"#utility.yul\":979:983   */\n      dup3\n        /* \"#utility.yul\":957:984   */\n      tag_46\n      jump\t// in\n    tag_77:\n        /* \"#utility.yul\":949:955   */\n      dup2\n        /* \"#utility.yul\":945:985   */\n      add\n        /* \"#utility.yul\":1087:1093   */\n      dup2\n        /* \"#utility.yul\":1075:1085   */\n      dup2\n        /* \"#utility.yul\":1072:1094   */\n      lt\n        /* \"#utility.yul\":1051:1069   */\n      0xffffffffffffffff\n        /* \"#utility.yul\":1039:1049   */\n      dup3\n        /* \"#utility.yul\":1036:1070   */\n      gt\n        /* \"#utility.yul\":1033:1095   */\n      or\n        /* \"#utility.yul\":1030:1118   */\n      iszero\n      tag_78\n      jumpi\n        /* \"#utility.yul\":1098:1116   */\n      tag_79\n      tag_47\n      jump\t// in\n    tag_79:\n        /* \"#utility.yul\":1030:1118   */\n    tag_78:\n        /* \"#utility.yul\":1138:1148   */\n      dup1\n        /* \"#utility.yul\":1134:1136   */\n      0x40\n        /* \"#utility.yul\":1127:1149   */\n      mstore\n        /* \"#utility.yul\":917:1155   */\n      pop\n        /* \"#utility.yul\":874:1155   */\n      pop\n      pop\n      jump\t// out\n        /* \"#utility.yul\":1161:1290   */\n    tag_49:\n        /* \"#utility.yul\":1195:1201   */\n      0x00\n        /* \"#utility.yul\":1222:1242   */\n      tag_81\n      tag_41\n      jump\t// in\n    tag_81:\n        /* \"#utility.yul\":1212:1242   */\n      swap1\n      pop\n        /* \"#utility.yul\":1251:1284   */\n      tag_82\n        /* \"#utility.yul\":1279:1283   */\n      dup3\n        /* \"#utility.yul\":1271:1277   */\n      dup3\n        /* \"#utility.yul\":1251:1284   */\n      tag_48\n      jump\t// in\n    tag_82:\n        /* \"#utility.yul\":1161:1290   */\n      swap2\n      swap1\n      pop\n      jump\t// out\n        /* \"#utility.yul\":1296:1604   */\n    tag_50:\n        /* \"#utility.yul\":1358:1362   */\n      0x00\n        /* \"#utility.yul\":1448:1466   */\n      0xffffffffffffffff\n        /* \"#utility.yul\":1440:1446   */\n      dup3\n        /* \"#utility.yul\":1437:1467   */\n      gt\n        /* \"#utility.yul\":1434:1490   */\n      iszero\n      tag_84\n      jumpi\n        /* \"#utility.yul\":1470:1488   */\n      tag_85\n      tag_47\n      jump\t// in\n    tag_85:\n        /* \"#utility.yul\":1434:1490   */\n    tag_84:\n        /* \"#utility.yul\":1508:1537   */\n      tag_86\n        /* \"#utility.yul\":1530:1536   */\n      dup3\n        /* \"#utility.yul\":1508:1537   */\n      tag_46\n      jump\t// in\n    tag_86:\n        /* \"#utility.yul\":1500:1537   */\n      swap1\n      pop\n        /* \"#utility.yul\":1592:1596   */\n      0x20\n        /* \"#utility.yul\":1586:1590   */\n      dup2\n        /* \"#utility.yul\":1582:1597   */\n      add\n        /* \"#utility.yul\":1574:1597   */\n      swap1\n      pop\n        /* \"#utility.yul\":1296:1604   */\n      swap2\n      swap1\n      pop\n      jump\t// out\n        /* \"#utility.yul\":1610:1756   */\n    tag_51:\n        /* \"#utility.yul\":1707:1713   */\n      dup3\n        /* \"#utility.yul\":1702:1705   */\n      dup2\n        /* \"#utility.yul\":1697:1700   */\n      dup4\n        /* \"#utility.yul\":1684:1714   */\n      calldatacopy\n        /* \"#utility.yul\":1748:1749   */\n      0x00\n        /* \"#utility.yul\":1739:1745   */\n      dup4\n        /* \"#utility.yul\":1734:1737   */\n      dup4\n        /* \"#utility.yul\":1730:1746   */\n      add\n        /* \"#utility.yul\":1723:1750   */\n      mstore\n        /* \"#utility.yul\":1610:1756   */\n      pop\n      pop\n      pop\n      jump\t// out\n        /* \"#utility.yul\":1762:2187   */\n    tag_52:\n        /* \"#utility.yul\":1840:1845   */\n      0x00\n        /* \"#utility.yul\":1865:1931   */\n      tag_89\n        /* \"#utility.yul\":1881:1930   */\n      tag_90\n        /* \"#utility.yul\":1923:1929   */\n      dup5\n        /* \"#utility.yul\":1881:1930   */\n      tag_50\n      jump\t// in\n    tag_90:\n        /* \"#utility.yul\":1865:1931   */\n      tag_49\n      jump\t// in\n    tag_89:\n        /* \"#utility.yul\":1856:1931   */\n      swap1\n      pop\n        /* \"#utility.yul\":1954:1960   */\n      dup3\n        /* \"#utility.yul\":1947:1952   */\n      dup2\n        /* \"#utility.yul\":1940:1961   */\n      mstore\n        /* \"#utility.yul\":1992:1996   */\n      0x20\n        /* \"#utility.yul\":1985:1990   */\n      dup2\n        /* \"#utility.yul\":1981:1997   */\n      add\n        /* \"#utility.yul\":2030:2033   */\n      dup5\n        /* \"#utility.yul\":2021:2027   */\n      dup5\n        /* \"#utility.yul\":2016:2019   */\n      dup5\n        /* \"#utility.yul\":2012:2028   */\n      add\n        /* \"#utility.yul\":2009:2034   */\n      gt\n        /* \"#utility.yul\":2006:2118   */\n      iszero\n      tag_91\n      jumpi\n        /* \"#utility.yul\":2037:2116   */\n      tag_92\n      tag_45\n      jump\t// in\n    tag_92:\n        /* \"#utility.yul\":2006:2118   */\n    tag_91:\n        /* \"#utility.yul\":2127:2181   */\n      tag_93\n        /* \"#utility.yul\":2174:2180   */\n      dup5\n        /* \"#utility.yul\":2169:2172   */\n      dup3\n        /* \"#utility.yul\":2164:2167   */\n      dup6\n        /* \"#utility.yul\":2127:2181   */\n      tag_51\n      jump\t// in\n    tag_93:\n        /* \"#utility.yul\":1846:2187   */\n      pop\n        /* \"#utility.yul\":1762:2187   */\n      swap4\n      swap3\n      pop\n      pop\n      pop\n      jump\t// out\n        /* \"#utility.yul\":2207:2547   */\n    tag_53:\n        /* \"#utility.yul\":2263:2268   */\n      0x00\n        /* \"#utility.yul\":2312:2315   */\n      dup3\n        /* \"#utility.yul\":2305:2309   */\n      0x1f\n        /* \"#utility.yul\":2297:2303   */\n      dup4\n        /* \"#utility.yul\":2293:2310   */\n      add\n        /* \"#utility.yul\":2289:2316   */\n      slt\n        /* \"#utility.yul\":2279:2401   */\n      tag_95\n      jumpi\n        /* \"#utility.yul\":2320:2399   */\n      tag_96\n      tag_44\n      jump\t// in\n    tag_96:\n        /* \"#utility.yul\":2279:2401   */\n    tag_95:\n        /* \"#utility.yul\":2437:2443   */\n      dup2\n        /* \"#utility.yul\":2424:2444   */\n      calldataload\n        /* \"#utility.yul\":2462:2541   */\n      tag_97\n        /* \"#utility.yul\":2537:2540   */\n      dup5\n        /* \"#utility.yul\":2529:2535   */\n      dup3\n        /* \"#utility.yul\":2522:2526   */\n      0x20\n        /* \"#utility.yul\":2514:2520   */\n      dup7\n        /* \"#utility.yul\":2510:2527   */\n      add\n        /* \"#utility.yul\":2462:2541   */\n      tag_52\n      jump\t// in\n    tag_97:\n        /* \"#utility.yul\":2453:2541   */\n      swap2\n      pop\n        /* \"#utility.yul\":2269:2547   */\n      pop\n        /* \"#utility.yul\":2207:2547   */\n      swap3\n      swap2\n      pop\n      pop\n      jump\t// out\n        /* \"#utility.yul\":2553:2679   */\n    tag_54:\n        /* \"#utility.yul\":2590:2597   */\n      0x00\n        /* \"#utility.yul\":2630:2672   */\n      0xffffffffffffffffffffffffffffffffffffffff\n        /* \"#utility.yul\":2623:2628   */\n      dup3\n        /* \"#utility.yul\":2619:2673   */\n      and\n        /* \"#utility.yul\":2608:2673   */\n      swap1\n      pop\n        /* \"#utility.yul\":2553:2679   */\n      swap2\n      swap1\n      pop\n      jump\t// out\n        /* \"#utility.yul\":2685:2781   */\n    tag_55:\n        /* \"#utility.yul\":2722:2729   */\n      0x00\n        /* \"#utility.yul\":2751:2775   */\n      tag_100\n        /* \"#utility.yul\":2769:2774   */\n      dup3\n        /* \"#utility.yul\":2751:2775   */\n      tag_54\n      jump\t// in\n    tag_100:\n        /* \"#utility.yul\":2740:2775   */\n      swap1\n      pop\n        /* \"#utility.yul\":2685:2781   */\n      swap2\n      swap1\n      pop\n      jump\t// out\n        /* \"#utility.yul\":2787:2909   */\n    tag_56:\n        /* \"#utility.yul\":2860:2884   */\n      tag_102\n        /* \"#utility.yul\":2878:2883   */\n      dup2\n        /* \"#utility.yul\":2860:2884   */\n      tag_55\n      jump\t// in\n    tag_102:\n        /* \"#utility.yul\":2853:2858   */\n      dup2\n        /* \"#utility.yul\":2850:2885   */\n      eq\n        /* \"#utility.yul\":2840:2903   */\n      tag_103\n      jumpi\n        /* \"#utility.yul\":2899:2900   */\n      0x00\n        /* \"#utility.yul\":2896:2897   */\n      dup1\n        /* \"#utility.yul\":2889:2901   */\n      revert\n        /* \"#utility.yul\":2840:2903   */\n    tag_103:\n        /* \"#utility.yul\":2787:2909   */\n      pop\n      jump\t// out\n        /* \"#utility.yul\":2915:3054   */\n    tag_57:\n        /* \"#utility.yul\":2961:2966   */\n      0x00\n        /* \"#utility.yul\":2999:3005   */\n      dup2\n        /* \"#utility.yul\":2986:3006   */\n      calldataload\n        /* \"#utility.yul\":2977:3006   */\n      swap1\n      pop\n        /* \"#utility.yul\":3015:3048   */\n      tag_105\n        /* \"#utility.yul\":3042:3047   */\n      dup2\n        /* \"#utility.yul\":3015:3048   */\n      tag_56\n      jump\t// in\n    tag_105:\n        /* \"#utility.yul\":2915:3054   */\n      swap3\n      swap2\n      pop\n      pop\n      jump\t// out\n        /* \"#utility.yul\":3060:3714   */\n    tag_9:\n        /* \"#utility.yul\":3138:3144   */\n      0x00\n        /* \"#utility.yul\":3146:3152   */\n      dup1\n        /* \"#utility.yul\":3195:3197   */\n      0x40\n        /* \"#utility.yul\":3183:3192   */\n      dup4\n        /* \"#utility.yul\":3174:3181   */\n      dup6\n        /* \"#utility.yul\":3170:3193   */\n      sub\n        /* \"#utility.yul\":3166:3198   */\n      slt\n        /* \"#utility.yul\":3163:3282   */\n      iszero\n      tag_107\n      jumpi\n        /* \"#utility.yul\":3201:3280   */\n      tag_108\n      tag_42\n      jump\t// in\n    tag_108:\n        /* \"#utility.yul\":3163:3282   */\n    tag_107:\n        /* \"#utility.yul\":3349:3350   */\n      0x00\n        /* \"#utility.yul\":3338:3347   */\n      dup4\n        /* \"#utility.yul\":3334:3351   */\n      add\n        /* \"#utility.yul\":3321:3352   */\n      calldataload\n        /* \"#utility.yul\":3379:3397   */\n      0xffffffffffffffff\n        /* \"#utility.yul\":3371:3377   */\n      dup2\n        /* \"#utility.yul\":3368:3398   */\n      gt\n        /* \"#utility.yul\":3365:3482   */\n      iszero\n      tag_109\n      jumpi\n        /* \"#utility.yul\":3401:3480   */\n      tag_110\n      tag_43\n      jump\t// in\n    tag_110:\n        /* \"#utility.yul\":3365:3482   */\n    tag_109:\n        /* \"#utility.yul\":3506:3569   */\n      tag_111\n        /* \"#utility.yul\":3561:3568   */\n      dup6\n        /* \"#utility.yul\":3552:3558   */\n      dup3\n        /* \"#utility.yul\":3541:3550   */\n      dup7\n        /* \"#utility.yul\":3537:3559   */\n      add\n        /* \"#utility.yul\":3506:3569   */\n      tag_53\n      jump\t// in\n    tag_111:\n        /* \"#utility.yul\":3496:3569   */\n      swap3\n      pop\n        /* \"#utility.yul\":3292:3579   */\n      pop\n        /* \"#utility.yul\":3618:3620   */\n      0x20\n        /* \"#utility.yul\":3644:3697   */\n      tag_112\n        /* \"#utility.yul\":3689:3696   */\n      dup6\n        /* \"#utility.yul\":3680:3686   */\n      dup3\n        /* \"#utility.yul\":3669:3678   */\n      dup7\n        /* \"#utility.yul\":3665:3687   */\n      add\n        /* \"#utility.yul\":3644:3697   */\n      tag_57\n      jump\t// in\n    tag_112:\n        /* \"#utility.yul\":3634:3697   */\n      swap2\n      pop\n        /* \"#utility.yul\":3589:3707   */\n      pop\n        /* \"#utility.yul\":3060:3714   */\n      swap3\n      pop\n      swap3\n      swap1\n      pop\n      jump\t// out\n        /* \"#utility.yul\":3720:4229   */\n    tag_16:\n        /* \"#utility.yul\":3789:3795   */\n      0x00\n        /* \"#utility.yul\":3838:3840   */\n      0x20\n        /* \"#utility.yul\":3826:3835   */\n      dup3\n        /* \"#utility.yul\":3817:3824   */\n      dup5\n        /* \"#utility.yul\":3813:3836   */\n      sub\n        /* \"#utility.yul\":3809:3841   */\n      slt\n        /* \"#utility.yul\":3806:3925   */\n      iszero\n      tag_114\n      jumpi\n        /* \"#utility.yul\":3844:3923   */\n      tag_115\n      tag_42\n      jump\t// in\n    tag_115:\n        /* \"#utility.yul\":3806:3925   */\n    tag_114:\n        /* \"#utility.yul\":3992:3993   */\n      0x00\n        /* \"#utility.yul\":3981:3990   */\n      dup3\n        /* \"#utility.yul\":3977:3994   */\n      add\n        /* \"#utility.yul\":3964:3995   */\n      calldataload\n        /* \"#utility.yul\":4022:4040   */\n      0xffffffffffffffff\n        /* \"#utility.yul\":4014:4020   */\n      dup2\n        /* \"#utility.yul\":4011:4041   */\n      gt\n        /* \"#utility.yul\":4008:4125   */\n      iszero\n      tag_116\n      jumpi\n        /* \"#utility.yul\":4044:4123   */\n      tag_117\n      tag_43\n      jump\t// in\n    tag_117:\n        /* \"#utility.yul\":4008:4125   */\n    tag_116:\n        /* \"#utility.yul\":4149:4212   */\n      tag_118\n        /* \"#utility.yul\":4204:4211   */\n      dup5\n        /* \"#utility.yul\":4195:4201   */\n      dup3\n        /* \"#utility.yul\":4184:4193   */\n      dup6\n        /* \"#utility.yul\":4180:4202   */\n      add\n        /* \"#utility.yul\":4149:4212   */\n      tag_53\n      jump\t// in\n    tag_118:\n        /* \"#utility.yul\":4139:4212   */\n      swap2\n      pop\n        /* \"#utility.yul\":3935:4222   */\n      pop\n        /* \"#utility.yul\":3720:4229   */\n      swap3\n      swap2\n      pop\n      pop\n      jump\t// out\n        /* \"#utility.yul\":4235:4353   */\n    tag_58:\n        /* \"#utility.yul\":4322:4346   */\n      tag_120\n        /* \"#utility.yul\":4340:4345   */\n      dup2\n        /* \"#utility.yul\":4322:4346   */\n      tag_55\n      jump\t// in\n    tag_120:\n        /* \"#utility.yul\":4317:4320   */\n      dup3\n        /* \"#utility.yul\":4310:4347   */\n      mstore\n        /* \"#utility.yul\":4235:4353   */\n      pop\n      pop\n      jump\t// out\n        /* \"#utility.yul\":4359:4581   */\n    tag_19:\n        /* \"#utility.yul\":4452:4456   */\n      0x00\n        /* \"#utility.yul\":4490:4492   */\n      0x20\n        /* \"#utility.yul\":4479:4488   */\n      dup3\n        /* \"#utility.yul\":4475:4493   */\n      add\n        /* \"#utility.yul\":4467:4493   */\n      swap1\n      pop\n        /* \"#utility.yul\":4503:4574   */\n      tag_122\n        /* \"#utility.yul\":4571:4572   */\n      0x00\n        /* \"#utility.yul\":4560:4569   */\n      dup4\n        /* \"#utility.yul\":4556:4573   */\n      add\n        /* \"#utility.yul\":4547:4553   */\n      dup5\n        /* \"#utility.yul\":4503:4574   */\n      tag_58\n      jump\t// in\n    tag_122:\n        /* \"#utility.yul\":4359:4581   */\n      swap3\n      swap2\n      pop\n      pop\n      jump\t// out\n        /* \"#utility.yul\":4587:4686   */\n    tag_59:\n        /* \"#utility.yul\":4639:4645   */\n      0x00\n        /* \"#utility.yul\":4673:4678   */\n      dup2\n        /* \"#utility.yul\":4667:4679   */\n      mload\n        /* \"#utility.yul\":4657:4679   */\n      swap1\n      pop\n        /* \"#utility.yul\":4587:4686   */\n      swap2\n      swap1\n      pop\n      jump\t// out\n        /* \"#utility.yul\":4692:4840   */\n    tag_60:\n        /* \"#utility.yul\":4794:4805   */\n      0x00\n        /* \"#utility.yul\":4831:4834   */\n      dup2\n        /* \"#utility.yul\":4816:4834   */\n      swap1\n      pop\n        /* \"#utility.yul\":4692:4840   */\n      swap3\n      swap2\n      pop\n      pop\n      jump\t// out\n        /* \"#utility.yul\":4846:5092   */\n    tag_61:\n        /* \"#utility.yul\":4927:4928   */\n      0x00\n        /* \"#utility.yul\":4937:5050   */\n    tag_126:\n        /* \"#utility.yul\":4951:4957   */\n      dup4\n        /* \"#utility.yul\":4948:4949   */\n      dup2\n        /* \"#utility.yul\":4945:4958   */\n      lt\n        /* \"#utility.yul\":4937:5050   */\n      iszero\n      tag_128\n      jumpi\n        /* \"#utility.yul\":5036:5037   */\n      dup1\n        /* \"#utility.yul\":5031:5034   */\n      dup3\n        /* \"#utility.yul\":5027:5038   */\n      add\n        /* \"#utility.yul\":5021:5039   */\n      mload\n        /* \"#utility.yul\":5017:5018   */\n      dup2\n        /* \"#utility.yul\":5012:5015   */\n      dup5\n        /* \"#utility.yul\":5008:5019   */\n      add\n        /* \"#utility.yul\":5001:5040   */\n      mstore\n        /* \"#utility.yul\":4973:4975   */\n      0x20\n        /* \"#utility.yul\":4970:4971   */\n      dup2\n        /* \"#utility.yul\":4966:4976   */\n      add\n        /* \"#utility.yul\":4961:4976   */\n      swap1\n      pop\n        /* \"#utility.yul\":4937:5050   */\n      jump(tag_126)\n    tag_128:\n        /* \"#utility.yul\":5084:5085   */\n      0x00\n        /* \"#utility.yul\":5075:5081   */\n      dup5\n        /* \"#utility.yul\":5070:5073   */\n      dup5\n        /* \"#utility.yul\":5066:5082   */\n      add\n        /* \"#utility.yul\":5059:5086   */\n      mstore\n        /* \"#utility.yul\":4908:5092   */\n      pop\n        /* \"#utility.yul\":4846:5092   */\n      pop\n      pop\n      pop\n      jump\t// out\n        /* \"#utility.yul\":5098:5488   */\n    tag_62:\n        /* \"#utility.yul\":5204:5207   */\n      0x00\n        /* \"#utility.yul\":5232:5271   */\n      tag_130\n        /* \"#utility.yul\":5265:5270   */\n      dup3\n        /* \"#utility.yul\":5232:5271   */\n      tag_59\n      jump\t// in\n    tag_130:\n        /* \"#utility.yul\":5287:5376   */\n      tag_131\n        /* \"#utility.yul\":5369:5375   */\n      dup2\n        /* \"#utility.yul\":5364:5367   */\n      dup6\n        /* \"#utility.yul\":5287:5376   */\n      tag_60\n      jump\t// in\n    tag_131:\n        /* \"#utility.yul\":5280:5376   */\n      swap4\n      pop\n        /* \"#utility.yul\":5385:5450   */\n      tag_132\n        /* \"#utility.yul\":5443:5449   */\n      dup2\n        /* \"#utility.yul\":5438:5441   */\n      dup6\n        /* \"#utility.yul\":5431:5435   */\n      0x20\n        /* \"#utility.yul\":5424:5429   */\n      dup7\n        /* \"#utility.yul\":5420:5436   */\n      add\n        /* \"#utility.yul\":5385:5450   */\n      tag_61\n      jump\t// in\n    tag_132:\n        /* \"#utility.yul\":5475:5481   */\n      dup1\n        /* \"#utility.yul\":5470:5473   */\n      dup5\n        /* \"#utility.yul\":5466:5482   */\n      add\n        /* \"#utility.yul\":5459:5482   */\n      swap2\n      pop\n        /* \"#utility.yul\":5208:5488   */\n      pop\n        /* \"#utility.yul\":5098:5488   */\n      swap3\n      swap2\n      pop\n      pop\n      jump\t// out\n        /* \"#utility.yul\":5494:5769   */\n    tag_26:\n        /* \"#utility.yul\":5626:5629   */\n      0x00\n        /* \"#utility.yul\":5648:5743   */\n      tag_134\n        /* \"#utility.yul\":5739:5742   */\n      dup3\n        /* \"#utility.yul\":5730:5736   */\n      dup5\n        /* \"#utility.yul\":5648:5743   */\n      tag_62\n      jump\t// in\n    tag_134:\n        /* \"#utility.yul\":5641:5743   */\n      swap2\n      pop\n        /* \"#utility.yul\":5760:5763   */\n      dup2\n        /* \"#utility.yul\":5753:5763   */\n      swap1\n      pop\n        /* \"#utility.yul\":5494:5769   */\n      swap3\n      swap2\n      pop\n      pop\n      jump\t// out\n        /* \"#utility.yul\":5775:5944   */\n    tag_63:\n        /* \"#utility.yul\":5859:5870   */\n      0x00\n        /* \"#utility.yul\":5893:5899   */\n      dup3\n        /* \"#utility.yul\":5888:5891   */\n      dup3\n        /* \"#utility.yul\":5881:5900   */\n      mstore\n        /* \"#utility.yul\":5933:5937   */\n      0x20\n        /* \"#utility.yul\":5928:5931   */\n      dup3\n        /* \"#utility.yul\":5924:5938   */\n      add\n        /* \"#utility.yul\":5909:5938   */\n      swap1\n      pop\n        /* \"#utility.yul\":5775:5944   */\n      swap3\n      swap2\n      pop\n      pop\n      jump\t// out\n        /* \"#utility.yul\":5950:6126   */\n    tag_64:\n        /* \"#utility.yul\":6090:6118   */\n      0x4e616d6520697320616c72656164792072656769737465726564000000000000\n        /* \"#utility.yul\":6086:6087   */\n      0x00\n        /* \"#utility.yul\":6078:6084   */\n      dup3\n        /* \"#utility.yul\":6074:6088   */\n      add\n        /* \"#utility.yul\":6067:6119   */\n      mstore\n        /* \"#utility.yul\":5950:6126   */\n      pop\n      jump\t// out\n        /* \"#utility.yul\":6132:6498   */\n    tag_65:\n        /* \"#utility.yul\":6274:6277   */\n      0x00\n        /* \"#utility.yul\":6295:6362   */\n      tag_138\n        /* \"#utility.yul\":6359:6361   */\n      0x1a\n        /* \"#utility.yul\":6354:6357   */\n      dup4\n        /* \"#utility.yul\":6295:6362   */\n      tag_63\n      jump\t// in\n    tag_138:\n        /* \"#utility.yul\":6288:6362   */\n      swap2\n      pop\n        /* \"#utility.yul\":6371:6464   */\n      tag_139\n        /* \"#utility.yul\":6460:6463   */\n      dup3\n        /* \"#utility.yul\":6371:6464   */\n      tag_64\n      jump\t// in\n    tag_139:\n        /* \"#utility.yul\":6489:6491   */\n      0x20\n        /* \"#utility.yul\":6484:6487   */\n      dup3\n        /* \"#utility.yul\":6480:6492   */\n      add\n        /* \"#utility.yul\":6473:6492   */\n      swap1\n      pop\n        /* \"#utility.yul\":6132:6498   */\n      swap2\n      swap1\n      pop\n      jump\t// out\n        /* \"#utility.yul\":6504:6923   */\n    tag_29:\n        /* \"#utility.yul\":6670:6674   */\n      0x00\n        /* \"#utility.yul\":6708:6710   */\n      0x20\n        /* \"#utility.yul\":6697:6706   */\n      dup3\n        /* \"#utility.yul\":6693:6711   */\n      add\n        /* \"#utility.yul\":6685:6711   */\n      swap1\n      pop\n        /* \"#utility.yul\":6757:6766   */\n      dup2\n        /* \"#utility.yul\":6751:6755   */\n      dup2\n        /* \"#utility.yul\":6747:6767   */\n      sub\n        /* \"#utility.yul\":6743:6744   */\n      0x00\n        /* \"#utility.yul\":6732:6741   */\n      dup4\n        /* \"#utility.yul\":6728:6745   */\n      add\n        /* \"#utility.yul\":6721:6768   */\n      mstore\n        /* \"#utility.yul\":6785:6916   */\n      tag_141\n        /* \"#utility.yul\":6911:6915   */\n      dup2\n        /* \"#utility.yul\":6785:6916   */\n      tag_65\n      jump\t// in\n    tag_141:\n        /* \"#utility.yul\":6777:6916   */\n      swap1\n      pop\n        /* \"#utility.yul\":6504:6923   */\n      swap2\n      swap1\n      pop\n      jump\t// out\n        /* \"#utility.yul\":6929:7102   */\n    tag_66:\n        /* \"#utility.yul\":7069:7094   */\n      0x4e616d65206e6f74207265676973746572656420796574000000000000000000\n        /* \"#utility.yul\":7065:7066   */\n      0x00\n        /* \"#utility.yul\":7057:7063   */\n      dup3\n        /* \"#utility.yul\":7053:7067   */\n      add\n        /* \"#utility.yul\":7046:7095   */\n      mstore\n        /* \"#utility.yul\":6929:7102   */\n      pop\n      jump\t// out\n        /* \"#utility.yul\":7108:7474   */\n    tag_67:\n        /* \"#utility.yul\":7250:7253   */\n      0x00\n        /* \"#utility.yul\":7271:7338   */\n      tag_144\n        /* \"#utility.yul\":7335:7337   */\n      0x17\n        /* \"#utility.yul\":7330:7333   */\n      dup4\n        /* \"#utility.yul\":7271:7338   */\n      tag_63\n      jump\t// in\n    tag_144:\n        /* \"#utility.yul\":7264:7338   */\n      swap2\n      pop\n        /* \"#utility.yul\":7347:7440   */\n      tag_145\n        /* \"#utility.yul\":7436:7439   */\n      dup3\n        /* \"#utility.yul\":7347:7440   */\n      tag_66\n      jump\t// in\n    tag_145:\n        /* \"#utility.yul\":7465:7467   */\n      0x20\n        /* \"#utility.yul\":7460:7463   */\n      dup3\n        /* \"#utility.yul\":7456:7468   */\n      add\n        /* \"#utility.yul\":7449:7468   */\n      swap1\n      pop\n        /* \"#utility.yul\":7108:7474   */\n      swap2\n      swap1\n      pop\n      jump\t// out\n        /* \"#utility.yul\":7480:7899   */\n    tag_36:\n        /* \"#utility.yul\":7646:7650   */\n      0x00\n        /* \"#utility.yul\":7684:7686   */\n      0x20\n        /* \"#utility.yul\":7673:7682   */\n      dup3\n        /* \"#utility.yul\":7669:7687   */\n      add\n        /* \"#utility.yul\":7661:7687   */\n      swap1\n      pop\n        /* \"#utility.yul\":7733:7742   */\n      dup2\n        /* \"#utility.yul\":7727:7731   */\n      dup2\n        /* \"#utility.yul\":7723:7743   */\n      sub\n        /* \"#utility.yul\":7719:7720   */\n      0x00\n        /* \"#utility.yul\":7708:7717   */\n      dup4\n        /* \"#utility.yul\":7704:7721   */\n      add\n        /* \"#utility.yul\":7697:7744   */\n      mstore\n        /* \"#utility.yul\":7761:7892   */\n      tag_147\n        /* \"#utility.yul\":7887:7891   */\n      dup2\n        /* \"#utility.yul\":7761:7892   */\n      tag_67\n      jump\t// in\n    tag_147:\n        /* \"#utility.yul\":7753:7892   */\n      swap1\n      pop\n        /* \"#utility.yul\":7480:7899   */\n      swap2\n      swap1\n      pop\n      jump\t// out\n\n    auxdata: 0xa26469706673582212209e8f619c5d07448d9b29f1d55fa2773ac2b3f2be395f84c89179534f801a480764736f6c63430008140033\n}\n",
				"bytecode": {
					"linkReferences": {},
					"object": "608060405234801561000f575f80fd5b5061083e8061001d5f395ff3fe608060405234801561000f575f80fd5b506004361061004a575f3560e01c80631e59c5291461004e5780632cff89c91461006a578063461a447814610086578063822fbf58146100b6575b5f80fd5b610068600480360381019061006391906105dd565b6100e6565b005b610084600480360381019061007f91906105dd565b610248565b005b6100a0600480360381019061009b9190610637565b6103aa565b6040516100ad919061068d565b60405180910390f35b6100d060048036038101906100cb9190610637565b6103ef565b6040516100dd919061068d565b60405180910390f35b5f73ffffffffffffffffffffffffffffffffffffffff165f8360405161010c9190610712565b90815260200160405180910390205f9054906101000a900473ffffffffffffffffffffffffffffffffffffffff1673ffffffffffffffffffffffffffffffffffffffff1614610190576040517f08c379a000000000000000000000000000000000000000000000000000000000815260040161018790610782565b60405180910390fd5b805f836040516101a09190610712565b90815260200160405180910390205f6101000a81548173ffffffffffffffffffffffffffffffffffffffff021916908373ffffffffffffffffffffffffffffffffffffffff1602179055508073ffffffffffffffffffffffffffffffffffffffff16826040516102109190610712565b60405180910390207f50f74ca45caac8020b8d891bd13ea5a2d79564986ee6a839f0d914896388322d60405160405180910390a35050565b5f73ffffffffffffffffffffffffffffffffffffffff165f8360405161026e9190610712565b90815260200160405180910390205f9054906101000a900473ffffffffffffffffffffffffffffffffffffffff1673ffffffffffffffffffffffffffffffffffffffff16036102f2576040517f08c379a00000000000000000000000000000000000000000000000000000000081526004016102e9906107ea565b60405180910390fd5b805f836040516103029190610712565b90815260200160405180910390205f6101000a81548173ffffffffffffffffffffffffffffffffffffffff021916908373ffffffffffffffffffffffffffffffffffffffff1602179055508073ffffffffffffffffffffffffffffffffffffffff16826040516103729190610712565b60405180910390207fd2259e9397e65ca61887cdea205b5eeb2c47323fd29440aa74554522fbddd7ba60405160405180910390a35050565b5f80826040516103ba9190610712565b90815260200160405180910390205f9054906101000a900473ffffffffffffffffffffffffffffffffffffffff169050919050565b5f818051602081018201805184825260208301602085012081835280955050505050505f915054906101000a900473ffffffffffffffffffffffffffffffffffffffff1681565b5f604051905090565b5f80fd5b5f80fd5b5f80fd5b5f80fd5b5f601f19601f8301169050919050565b7f4e487b71000000000000000000000000000000000000000000000000000000005f52604160045260245ffd5b6104958261044f565b810181811067ffffffffffffffff821117156104b4576104b361045f565b5b80604052505050565b5f6104c6610436565b90506104d2828261048c565b919050565b5f67ffffffffffffffff8211156104f1576104f061045f565b5b6104fa8261044f565b9050602081019050919050565b828183375f83830152505050565b5f610527610522846104d7565b6104bd565b9050828152602081018484840111156105435761054261044b565b5b61054e848285610507565b509392505050565b5f82601f83011261056a57610569610447565b5b813561057a848260208601610515565b91505092915050565b5f73ffffffffffffffffffffffffffffffffffffffff82169050919050565b5f6105ac82610583565b9050919050565b6105bc816105a2565b81146105c6575f80fd5b50565b5f813590506105d7816105b3565b92915050565b5f80604083850312156105f3576105f261043f565b5b5f83013567ffffffffffffffff8111156106105761060f610443565b5b61061c85828601610556565b925050602061062d858286016105c9565b9150509250929050565b5f6020828403121561064c5761064b61043f565b5b5f82013567ffffffffffffffff81111561066957610668610443565b5b61067584828501610556565b91505092915050565b610687816105a2565b82525050565b5f6020820190506106a05f83018461067e565b92915050565b5f81519050919050565b5f81905092915050565b5f5b838110156106d75780820151818401526020810190506106bc565b5f8484015250505050565b5f6106ec826106a6565b6106f681856106b0565b93506107068185602086016106ba565b80840191505092915050565b5f61071d82846106e2565b915081905092915050565b5f82825260208201905092915050565b7f4e616d6520697320616c726561647920726567697374657265640000000000005f82015250565b5f61076c601a83610728565b915061077782610738565b602082019050919050565b5f6020820190508181035f83015261079981610760565b9050919050565b7f4e616d65206e6f742072656769737465726564207965740000000000000000005f82015250565b5f6107d4601783610728565b91506107df826107a0565b602082019050919050565b5f6020820190508181035f830152610801816107c8565b905091905056fea26469706673582212209e8f619c5d07448d9b29f1d55fa2773ac2b3f2be395f84c89179534f801a480764736f6c63430008140033",
					"opcodes": "PUSH1 0x80 PUSH1 0x40 MSTORE CALLVALUE DUP1 ISZERO PUSH2 0xF JUMPI PUSH0 DUP1 REVERT JUMPDEST POP PUSH2 0x83E DUP1 PUSH2 0x1D PUSH0 CODECOPY PUSH0 RETURN INVALID PUSH1 0x80 PUSH1 0x40 MSTORE CALLVALUE DUP1 ISZERO PUSH2 0xF JUMPI PUSH0 DUP1 REVERT JUMPDEST POP PUSH1 0x4 CALLDATASIZE LT PUSH2 0x4A JUMPI PUSH0 CALLDATALOAD PUSH1 0xE0 SHR DUP1 PUSH4 0x1E59C529 EQ PUSH2 0x4E JUMPI DUP1 PUSH4 0x2CFF89C9 EQ PUSH2 0x6A JUMPI DUP1 PUSH4 0x461A4478 EQ PUSH2 0x86 JUMPI DUP1 PUSH4 0x822FBF58 EQ PUSH2 0xB6 JUMPI JUMPDEST PUSH0 DUP1 REVERT JUMPDEST PUSH2 0x68 PUSH1 0x4 DUP1 CALLDATASIZE SUB DUP2 ADD SWAP1 PUSH2 0x63 SWAP2 SWAP1 PUSH2 0x5DD JUMP JUMPDEST PUSH2 0xE6 JUMP JUMPDEST STOP JUMPDEST PUSH2 0x84 PUSH1 0x4 DUP1 CALLDATASIZE SUB DUP2 ADD SWAP1 PUSH2 0x7F SWAP2 SWAP1 PUSH2 0x5DD JUMP JUMPDEST PUSH2 0x248 JUMP JUMPDEST STOP JUMPDEST PUSH2 0xA0 PUSH1 0x4 DUP1 CALLDATASIZE SUB DUP2 ADD SWAP1 PUSH2 0x9B SWAP2 SWAP1 PUSH2 0x637 JUMP JUMPDEST PUSH2 0x3AA JUMP JUMPDEST PUSH1 0x40 MLOAD PUSH2 0xAD SWAP2 SWAP1 PUSH2 0x68D JUMP JUMPDEST PUSH1 0x40 MLOAD DUP1 SWAP2 SUB SWAP1 RETURN JUMPDEST PUSH2 0xD0 PUSH1 0x4 DUP1 CALLDATASIZE SUB DUP2 ADD SWAP1 PUSH2 0xCB SWAP2 SWAP1 PUSH2 0x637 JUMP JUMPDEST PUSH2 0x3EF JUMP JUMPDEST PUSH1 0x40 MLOAD PUSH2 0xDD SWAP2 SWAP1 PUSH2 0x68D JUMP JUMPDEST PUSH1 0x40 MLOAD DUP1 SWAP2 SUB SWAP1 RETURN JUMPDEST PUSH0 PUSH20 0xFFFFFFFFFFFFFFFFFFFFFFFFFFFFFFFFFFFFFFFF AND PUSH0 DUP4 PUSH1 0x40 MLOAD PUSH2 0x10C SWAP2 SWAP1 PUSH2 0x712 JUMP JUMPDEST SWAP1 DUP2 MSTORE PUSH1 0x20 ADD PUSH1 0x40 MLOAD DUP1 SWAP2 SUB SWAP1 KECCAK256 PUSH0 SWAP1 SLOAD SWAP1 PUSH2 0x100 EXP SWAP1 DIV PUSH20 0xFFFFFFFFFFFFFFFFFFFFFFFFFFFFFFFFFFFFFFFF AND PUSH20 0xFFFFFFFFFFFFFFFFFFFFFFFFFFFFFFFFFFFFFFFF AND EQ PUSH2 0x190 JUMPI PUSH1 0x40 MLOAD PUSH32 0x8C379A000000000000000000000000000000000000000000000000000000000 DUP2 MSTORE PUSH1 0x4 ADD PUSH2 0x187 SWAP1 PUSH2 0x782 JUMP JUMPDEST PUSH1 0x40 MLOAD DUP1 SWAP2 SUB SWAP1 REVERT JUMPDEST DUP1 PUSH0 DUP4 PUSH1 0x40 MLOAD PUSH2 0x1A0 SWAP2 SWAP1 PUSH2 0x712 JUMP JUMPDEST SWAP1 DUP2 MSTORE PUSH1 0x20 ADD PUSH1 0x40 MLOAD DUP1 SWAP2 SUB SWAP1 KECCAK256 PUSH0 PUSH2 0x100 EXP DUP2 SLOAD DUP2 PUSH20 0xFFFFFFFFFFFFFFFFFFFFFFFFFFFFFFFFFFFFFFFF MUL NOT AND SWAP1 DUP4 PUSH20 0xFFFFFFFFFFFFFFFFFFFFFFFFFFFFFFFFFFFFFFFF AND MUL OR SWAP1 SSTORE POP DUP1 PUSH20 0xFFFFFFFFFFFFFFFFFFFFFFFFFFFFFFFFFFFFFFFF AND DUP3 PUSH1 0x40 MLOAD PUSH2 0x210 SWAP2 SWAP1 PUSH2 0x712 JUMP JUMPDEST PUSH1 0x40 MLOAD DUP1 SWAP2 SUB SWAP1 KECCAK256 PUSH32 0x50F74CA45CAAC8020B8D891BD13EA5A2D79564986EE6A839F0D914896388322D PUSH1 0x40 MLOAD PUSH1 0x40 MLOAD DUP1 SWAP2 SUB SWAP1 LOG3 POP POP JUMP JUMPDEST PUSH0 PUSH20 0xFFFFFFFFFFFFFFFFFFFFFFFFFFFFFFFFFFFFFFFF AND PUSH0 DUP4 PUSH1 0x40 MLOAD PUSH2 0x26E SWAP2 SWAP1 PUSH2 0x712 JUMP JUMPDEST SWAP1 DUP2 MSTORE PUSH1 0x20 ADD PUSH1 0x40 MLOAD DUP1 SWAP2 SUB SWAP1 KECCAK256 PUSH0 SWAP1 SLOAD SWAP1 PUSH2 0x100 EXP SWAP1 DIV PUSH20 0xFFFFFFFFFFFFFFFFFFFFFFFFFFFFFFFFFFFFFFFF AND PUSH20 0xFFFFFFFFFFFFFFFFFFFFFFFFFFFFFFFFFFFFFFFF AND SUB PUSH2 0x2F2 JUMPI PUSH1 0x40 MLOAD PUSH32 0x8C379A000000000000000000000000000000000000000000000000000000000 DUP2 MSTORE PUSH1 0x4 ADD PUSH2 0x2E9 SWAP1 PUSH2 0x7EA JUMP JUMPDEST PUSH1 0x40 MLOAD DUP1 SWAP2 SUB SWAP1 REVERT JUMPDEST DUP1 PUSH0 DUP4 PUSH1 0x40 MLOAD PUSH2 0x302 SWAP2 SWAP1 PUSH2 0x712 JUMP JUMPDEST SWAP1 DUP2 MSTORE PUSH1 0x20 ADD PUSH1 0x40 MLOAD DUP1 SWAP2 SUB SWAP1 KECCAK256 PUSH0 PUSH2 0x100 EXP DUP2 SLOAD DUP2 PUSH20 0xFFFFFFFFFFFFFFFFFFFFFFFFFFFFFFFFFFFFFFFF MUL NOT AND SWAP1 DUP4 PUSH20 0xFFFFFFFFFFFFFFFFFFFFFFFFFFFFFFFFFFFFFFFF AND MUL OR SWAP1 SSTORE POP DUP1 PUSH20 0xFFFFFFFFFFFFFFFFFFFFFFFFFFFFFFFFFFFFFFFF AND DUP3 PUSH1 0x40 MLOAD PUSH2 0x372 SWAP2 SWAP1 PUSH2 0x712 JUMP JUMPDEST PUSH1 0x40 MLOAD DUP1 SWAP2 SUB SWAP1 KECCAK256 PUSH32 0xD2259E9397E65CA61887CDEA205B5EEB2C47323FD29440AA74554522FBDDD7BA PUSH1 0x40 MLOAD PUSH1 0x40 MLOAD DUP1 SWAP2 SUB SWAP1 LOG3 POP POP JUMP JUMPDEST PUSH0 DUP1 DUP3 PUSH1 0x40 MLOAD PUSH2 0x3BA SWAP2 SWAP1 PUSH2 0x712 JUMP JUMPDEST SWAP1 DUP2 MSTORE PUSH1 0x20 ADD PUSH1 0x40 MLOAD DUP1 SWAP2 SUB SWAP1 KECCAK256 PUSH0 SWAP1 SLOAD SWAP1 PUSH2 0x100 EXP SWAP1 DIV PUSH20 0xFFFFFFFFFFFFFFFFFFFFFFFFFFFFFFFFFFFFFFFF AND SWAP1 POP SWAP2 SWAP1 POP JUMP JUMPDEST PUSH0 DUP2 DUP1 MLOAD PUSH1 0x20 DUP2 ADD DUP3 ADD DUP1 MLOAD DUP5 DUP3 MSTORE PUSH1 0x20 DUP4 ADD PUSH1 0x20 DUP6 ADD KECCAK256 DUP2 DUP4 MSTORE DUP1 SWAP6 POP POP POP POP POP POP PUSH0 SWAP2 POP SLOAD SWAP1 PUSH2 0x100 EXP SWAP1 DIV PUSH20 0xFFFFFFFFFFFFFFFFFFFFFFFFFFFFFFFFFFFFFFFF AND DUP2 JUMP JUMPDEST PUSH0 PUSH1 0x40 MLOAD SWAP1 POP SWAP1 JUMP JUMPDEST PUSH0 DUP1 REVERT JUMPDEST PUSH0 DUP1 REVERT JUMPDEST PUSH0 DUP1 REVERT JUMPDEST PUSH0 DUP1 REVERT JUMPDEST PUSH0 PUSH1 0x1F NOT PUSH1 0x1F DUP4 ADD AND SWAP1 POP SWAP2 SWAP1 POP JUMP JUMPDEST PUSH32 0x4E487B7100000000000000000000000000000000000000000000000000000000 PUSH0 MSTORE PUSH1 0x41 PUSH1 0x4 MSTORE PUSH1 0x24 PUSH0 REVERT JUMPDEST PUSH2 0x495 DUP3 PUSH2 0x44F JUMP JUMPDEST DUP2 ADD DUP2 DUP2 LT PUSH8 0xFFFFFFFFFFFFFFFF DUP3 GT OR ISZERO PUSH2 0x4B4 JUMPI PUSH2 0x4B3 PUSH2 0x45F JUMP JUMPDEST JUMPDEST DUP1 PUSH1 0x40 MSTORE POP POP POP JUMP JUMPDEST PUSH0 PUSH2 0x4C6 PUSH2 0x436 JUMP JUMPDEST SWAP1 POP PUSH2 0x4D2 DUP3 DUP3 PUSH2 0x48C JUMP JUMPDEST SWAP2 SWAP1 POP JUMP JUMPDEST PUSH0 PUSH8 0xFFFFFFFFFFFFFFFF DUP3 GT ISZERO PUSH2 0x4F1 JUMPI PUSH2 0x4F0 PUSH2 0x45F JUMP JUMPDEST JUMPDEST PUSH2 0x4FA DUP3 PUSH2 0x44F JUMP JUMPDEST SWAP1 POP PUSH1 0x20 DUP2 ADD SWAP1 POP SWAP2 SWAP1 POP JUMP JUMPDEST DUP3 DUP2 DUP4 CALLDATACOPY PUSH0 DUP4 DUP4 ADD MSTORE POP POP POP JUMP JUMPDEST PUSH0 PUSH2 0x527 PUSH2 0x522 DUP5 PUSH2 0x4D7 JUMP JUMPDEST PUSH2 0x4BD JUMP JUMPDEST SWAP1 POP DUP3 DUP2 MSTORE PUSH1 0x20 DUP2 ADD DUP5 DUP5 DUP5 ADD GT ISZERO PUSH2 0x543 JUMPI PUSH2 0x542 PUSH2 0x44B JUMP JUMPDEST JUMPDEST PUSH2 0x54E DUP5 DUP3 DUP6 PUSH2 0x507 JUMP JUMPDEST POP SWAP4 SWAP3 POP POP POP JUMP JUMPDEST PUSH0 DUP3 PUSH1 0x1F DUP4 ADD SLT PUSH2 0x56A JUMPI PUSH2 0x569 PUSH2 0x447 JUMP JUMPDEST JUMPDEST DUP2 CALLDATALOAD PUSH2 0x57A DUP5 DUP3 PUSH1 0x20 DUP7 ADD PUSH2 0x515 JUMP JUMPDEST SWAP2 POP POP SWAP3 SWAP2 POP POP JUMP JUMPDEST PUSH0 PUSH20 0xFFFFFFFFFFFFFFFFFFFFFFFFFFFFFFFFFFFFFFFF DUP3 AND SWAP1 POP SWAP2 SWAP1 POP JUMP JUMPDEST PUSH0 PUSH2 0x5AC DUP3 PUSH2 0x583 JUMP JUMPDEST SWAP1 POP SWAP2 SWAP1 POP JUMP JUMPDEST PUSH2 0x5BC DUP2 PUSH2 0x5A2 JUMP JUMPDEST DUP2 EQ PUSH2 0x5C6 JUMPI PUSH0 DUP1 REVERT JUMPDEST POP JUMP JUMPDEST PUSH0 DUP2 CALLDATALOAD SWAP1 POP PUSH2 0x5D7 DUP2 PUSH2 0x5B3 JUMP JUMPDEST SWAP3 SWAP2 POP POP JUMP JUMPDEST PUSH0 DUP1 PUSH1 0x40 DUP4 DUP6 SUB SLT ISZERO PUSH2 0x5F3 JUMPI PUSH2 0x5F2 PUSH2 0x43F JUMP JUMPDEST JUMPDEST PUSH0 DUP4 ADD CALLDATALOAD PUSH8 0xFFFFFFFFFFFFFFFF DUP2 GT ISZERO PUSH2 0x610 JUMPI PUSH2 0x60F PUSH2 0x443 JUMP JUMPDEST JUMPDEST PUSH2 0x61C DUP6 DUP3 DUP7 ADD PUSH2 0x556 JUMP JUMPDEST SWAP3 POP POP PUSH1 0x20 PUSH2 0x62D DUP6 DUP3 DUP7 ADD PUSH2 0x5C9 JUMP JUMPDEST SWAP2 POP POP SWAP3 POP SWAP3 SWAP1 POP JUMP JUMPDEST PUSH0 PUSH1 0x20 DUP3 DUP5 SUB SLT ISZERO PUSH2 0x64C JUMPI PUSH2 0x64B PUSH2 0x43F JUMP JUMPDEST JUMPDEST PUSH0 DUP3 ADD CALLDATALOAD PUSH8 0xFFFFFFFFFFFFFFFF DUP2 GT ISZERO PUSH2 0x669 JUMPI PUSH2 0x668 PUSH2 0x443 JUMP JUMPDEST JUMPDEST PUSH2 0x675 DUP5 DUP3 DUP6 ADD PUSH2 0x556 JUMP JUMPDEST SWAP2 POP POP SWAP3 SWAP2 POP POP JUMP JUMPDEST PUSH2 0x687 DUP2 PUSH2 0x5A2 JUMP JUMPDEST DUP3 MSTORE POP POP JUMP JUMPDEST PUSH0 PUSH1 0x20 DUP3 ADD SWAP1 POP PUSH2 0x6A0 PUSH0 DUP4 ADD DUP5 PUSH2 0x67E JUMP JUMPDEST SWAP3 SWAP2 POP POP JUMP JUMPDEST PUSH0 DUP2 MLOAD SWAP1 POP SWAP2 SWAP1 POP JUMP JUMPDEST PUSH0 DUP2 SWAP1 POP SWAP3 SWAP2 POP POP JUMP JUMPDEST PUSH0 JUMPDEST DUP4 DUP2 LT ISZERO PUSH2 0x6D7 JUMPI DUP1 DUP3 ADD MLOAD DUP2 DUP5 ADD MSTORE PUSH1 0x20 DUP2 ADD SWAP1 POP PUSH2 0x6BC JUMP JUMPDEST PUSH0 DUP5 DUP5 ADD MSTORE POP POP POP POP JUMP JUMPDEST PUSH0 PUSH2 0x6EC DUP3 PUSH2 0x6A6 JUMP JUMPDEST PUSH2 0x6F6 DUP2 DUP6 PUSH2 0x6B0 JUMP JUMPDEST SWAP4 POP PUSH2 0x706 DUP2 DUP6 PUSH1 0x20 DUP7 ADD PUSH2 0x6BA JUMP JUMPDEST DUP1 DUP5 ADD SWAP2 POP POP SWAP3 SWAP2 POP POP JUMP JUMPDEST PUSH0 PUSH2 0x71D DUP3 DUP5 PUSH2 0x6E2 JUMP JUMPDEST SWAP2 POP DUP2 SWAP1 POP SWAP3 SWAP2 POP POP JUMP JUMPDEST PUSH0 DUP3 DUP3 MSTORE PUSH1 0x20 DUP3 ADD SWAP1 POP SWAP3 SWAP2 POP POP JUMP JUMPDEST PUSH32 0x4E616D6520697320616C72656164792072656769737465726564000000000000 PUSH0 DUP3 ADD MSTORE POP JUMP JUMPDEST PUSH0 PUSH2 0x76C PUSH1 0x1A DUP4 PUSH2 0x728 JUMP JUMPDEST SWAP2 POP PUSH2 0x777 DUP3 PUSH2 0x738 JUMP JUMPDEST PUSH1 0x20 DUP3 ADD SWAP1 POP SWAP2 SWAP1 POP JUMP JUMPDEST PUSH0 PUSH1 0x20 DUP3 ADD SWAP1 POP DUP2 DUP2 SUB PUSH0 DUP4 ADD MSTORE PUSH2 0x799 DUP2 PUSH2 0x760 JUMP JUMPDEST SWAP1 POP SWAP2 SWAP1 POP JUMP JUMPDEST PUSH32 0x4E616D65206E6F74207265676973746572656420796574000000000000000000 PUSH0 DUP3 ADD MSTORE POP JUMP JUMPDEST PUSH0 PUSH2 0x7D4 PUSH1 0x17 DUP4 PUSH2 0x728 JUMP JUMPDEST SWAP2 POP PUSH2 0x7DF DUP3 PUSH2 0x7A0 JUMP JUMPDEST PUSH1 0x20 DUP3 ADD SWAP1 POP SWAP2 SWAP1 POP JUMP JUMPDEST PUSH0 PUSH1 0x20 DUP3 ADD SWAP1 POP DUP2 DUP2 SUB PUSH0 DUP4 ADD MSTORE PUSH2 0x801 DUP2 PUSH2 0x7C8 JUMP JUMPDEST SWAP1 POP SWAP2 SWAP1 POP JUMP INVALID LOG2 PUSH5 0x6970667358 0x22 SLT KECCAK256 SWAP15 DUP16 PUSH2 0x9C5D SMOD PREVRANDAO DUP14 SWAP12 0x29 CALL 0xD5 PUSH0 LOG2 PUSH24 0x3AC2B3F2BE395F84C89179534F801A480764736F6C634300 ADDMOD EQ STOP CALLER "
				},
				"gasEstimates": {
					"creation": {
						"codeDepositCost": "422000",
						"executionCost": "453",
						"totalCost": "422453"
					},
					"external": {
						"names(string)": "infinite",
						"register(string,address)": "infinite",
						"resolve(string)": "infinite",
						"update(string,address)": "infinite"
					}
				},
				"methodIdentifiers": {
					"names(string)": "822fbf58",
					"register(string,address)": "1e59c529",
					"resolve(string)": "461a4478",
					"update(string,address)": "2cff89c9"
				}
			},
			"storageLayout": {
				"storage": [
					{
						"astId": 6,
						"contract": "ENS.sol:ENS",
						"label": "names",
						"offset": 0,
						"slot": "0",
						"type": "t_mapping(t_string_memory_ptr,t_address)"
					}
				],
				"types": {
					"t_address": {
						"encoding": "inplace",
						"label": "address",
						"numberOfBytes": "20"
					},
					"t_mapping(t_string_memory_ptr,t_address)": {
						"encoding": "mapping",
						"key": "t_string_memory_ptr",
						"label": "mapping(string => address)",
						"numberOfBytes": "32",
						"value": "t_address"
					},
					"t_string_memory_ptr": {
						"encoding": "bytes",
						"label": "string",
						"numberOfBytes": "32"
					}
				}
			},
			"userdoc": {
				"kind": "user",
				"methods": {
					"register(string,address)": {
						"notice": "도메인 이름을 이더리움 주소에 등록"
					},
					"resolve(string)": {
						"notice": "도메인 주소 반환"
					},
					"update(string,address)": {
						"notice": "기존 도메인에 대한 주소를 변경 (소유자만 가능하도록 하지 않음) 향후 이 기능은 소유자만 접근 가능하도록 권한 제한 필요"
					}
				},
				"version": 1
			}
		}
	}
}